:02000002D0002C
:1040000000400D00646E0D00000006000C0005016C
:084010000401BD0B00000000DB
:0440180058680D00D7
:10401C0009480A49884208B505D0094A824202D0AB
:10402C00121A02F08DFB0748074A0021121A02F0FF
:10403C00AFFB014808BD00BFA8E60320D46D0D00FE
:10404C0010E7032010E70320F0E7032070B5074EBC
:10405C00074C01F087FFA41BA4080025A54200D142
:10406C0070BD56F8043B98470135F7E7A06D0D007D
:10407C00C46D0D0000F022B908B500F03FF9BDE8A1
:10408C00084001F031BF00F00DBC00F013BC00780B
:10409C00B0FA80F04009704701230370704710B5E7
:1040AC000446006808B100F005FC204610BD0EB4B3
:1040BC0003B503AB002153F8042B019301F091FEDF
:1040CC0002B05DF804EB03B07047000010B5642932
:1040DC009AB00C4606D902F04BF80D4901F059FE86
:1040EC001AB010BD0A46014601A802F08FFB1AABAC
:1040FC001C44002304F8643C02F03AF8054901AA78
:10410C00FFF7D5FF01A9044800F0CBFCE8E700BF9E
:10411C006C680D007D680D003CE703202DE9F04133
:10412C006429ACB00C4607D902F022F82C4901F0F6
:10413C0030FE2CB0BDE8F08113AD0A46014628468E
:10414C0002F064FB2CAB1C44002604F8646C254C78
:10415C0002F00EF824492A46FFF7A9FF60683246A0
:10416C00022100F027FB606833463246314600F0EE
:10417C0059FBA04620B901F0FBFF1C4901F009FED8
:10418C001B4B1E680EB3304602F038FB0446284623
:10419C0002F034FB38220746002105A802F0F8FA99
:1041AC004C23CDE900360323ADF814300023D8F8A6
:1041BC00040004976A461946CDE9024500F02AFB33
:1041CC0028B101F0D5FF0B49B1E73446DFE701F028
:1041DC00CFFF094901F0DDFD00F0E2FBA9E700BFCC
:1041EC0090680D00DCE70320A5680D00B8680D0091
:1041FC003CE70320D9680D00F8680D0010B596B0A7
:10420C0001F054F8294A01460DA801F06FFC0DA8E5
:10421C0001F013F901F04AF8254A01460DA801F006
:10422C0065FC0DA801F009F901F040F8214A01469E
:10423C000DA801F05BFC0DA801F0FFF80DA800F033
:10424C00C6FE1D4903A800F0C5FD03A908A800F08F
:10425C00C1FD08A800F004FE044608A8ECB900F063
:10426C001EFE0094ADF80A0002230DF10A02032190
:10427C000DA800F0A1FE01F019F80DA9002201F023
:10428C007CF800F0FFFA00238DF82000012208A929
:10429C00064800F003FF16B010BD00F005FE002329
:1042AC000093024610230721E2E700BF34E7032006
:1042BC0054E703204CE7032020E7032008B501F066
:1042CC0057FF4FF4E13101F047FF4FF47A7001F0E2
:1042DC00D1FD01F04DFF074901F05BFDFFF78EFFAB
:1042EC0000F0C8FA01F044FFBDE80840024901F0B3
:1042FC0050BD00BF0D690D0024690D007047F0B56D
:10430C00164691B00022C0E9002204460D460BAFC0
:10431C00194606A800F05EFD1699384600F05AFDC5
:10432C0033788DF81430189B0293179B2046CDE9F7
:10433C00007305AA06AB294601F0B6FA204611B067
:10434C00F0BD00002DE9F047002190B03C4D3D4EF2
:10435C003D4FDFF83491DFF83481DFF834A10120D0
:10436C0000F0F2F90024394BAB602C60AC80AC71DE
:10437C00022000F0D9F932463549284602F0A8F857
:10438C003449384600F00CFE0BAD122332498DF83F
:10439C00143006A800F004FE3946284600F01AFD39
:1043AC0006ABCDE9014405AA2C4900954846FFF718
:1043BC00A6FF32464146484602F08AF84FF00409FF
:1043CC0027498DF8149006A800F0EAFD39462846D6
:1043DC0000F000FD234B0294CDE9005305AA06AB77
:1043EC0021495046FFF78BFF32464146504602F0BA
:1043FC006FF81E498DF8149006A800F0D1FD3946CF
:10440C00284600F0E7FC1A4F1A4B0294CDE90053F2
:10441C00194C1A4906AB05AA3846FFF770FF32460D
:10442C004146384602F054F81549204600F025FB69
:10443C0014493246204602F04BF810B0BDE8F08724
:10444C0014E7032010E7032020E703200000FFFF00
:10445C00AB400D0037690D005C690D002D690D0036
:10446C0081690D00D9400D00A6690D00B2690D00DF
:10447C004CE7032029410D003CE70320D7690D00D0
:10448C008F680D00F1490D0034E7032047540D00EF
:10449C0054E7032008B5024B1B689B68019308BDC9
:1044AC006802030008B5024B1B68DB68019308BD6A
:1044BC006802030008B5024B1B685B68019308BDDA
:1044CC001802030008B5024B1B68DB68019308BD9A
:1044DC001802030008B5024B1B685B69019308BD09
:1044EC001802030008B5024B1B689B68019308BDBA
:1044FC007802030008B5024B1B681B6D019308BDC5
:10450C007802030008B5024B1B689B6D019308BD34
:10451C007802030008B5024B1B681B6E019308BDA3
:10452C007802030008B5034B1B68D3F8983001934D
:10453C0008BD00007802030008B5034B1B68D3F8D4
:10454C00A830019308BD00007802030008B5034BA6
:10455C001B68D3F8B430019308BD00007802030047
:10456C0008B5034B1B68D3F8D830019308BD000085
:10457C007802030008B5034B1B68D3F8DC300193B9
:10458C0008BD00007802030008B5034B1B68D3F884
:10459C00EC30019308BD00007802030008B5034B12
:1045AC001B68D3F8F030019308BD000078020300BB
:1045BC0008B5034B1B68D3F80031019308BD00000C
:1045CC007802030008B5034B1B68D3F80431019340
:1045DC0008BD00007802030008B5024B1B685B6C39
:1045EC00019308BD4802030008B5024B1B689B6C85
:1045FC00019308BD4802030008B5024B1B68DB6C35
:10460C00019308BD4802030008B5024B1B685B6DA3
:10461C00019308BD4802030008B5024B1B685B6997
:10462C00019308BD6402030008B5024B1B681B68AC
:10463C00019308BD3C02030008B5024B1B68DB6804
:10464C00019308BD3C02030008B5024B1B681B69B3
:10465C00019308BD3C02030008B5024B1B685B6963
:10466C00019308BD3C02030008B5024B1B689B6913
:10467C00019308BD3C02030008B5024B1B68DB69C3
:10468C00019308BD3C02030008B5024B1B689B6AF2
:10469C00019308BD3C02030008B5024B1B681B6864
:1046AC00019308BD4C02030008B5024B1B685B6804
:1046BC00019308BD4C02030008B5024B1B681B6933
:1046CC00019308BD4C02030008B5024B1B685B69E3
:1046DC00019308BD4C02030008B5024B1B689B6993
:1046EC00019308BD4C02030008B5024B1B68DB6943
:1046FC00019308BD4C02030008B5024B1B681B6AF2
:10470C00019308BD4C02030008B5024B1B685B6BA0
:10471C00019308BD6002030008B5024B1B681B6DBA
:10472C00019308BD6002030008B5024B1B685B686F
:10473C00019308BD2002030008B5024B1B685B699E
:10474C00019308BD2002030008B5024B1B68DB6A0D
:10475C00019308BD2002030008B5034B1B68D3F876
:10476C008830019308BD00002002030008B5034BFC
:10477C001B68D3F89430019308BD0000200203009D
:10478C0008B5034B1B68D3F8AC30019308BD00008F
:10479C002002030008B5024B1B685B68019308BD3F
:1047AC004002030008B5024B1B689B68019308BDCF
:1047BC004002030008B5024B1B68DB68019308BD7F
:1047CC004002030008B5024B1B681B69019308BD2E
:1047DC004002030008B5024B1B685B69019308BDDE
:1047EC004002030008B5024B1B689B69019308BD8E
:1047FC004002030008B5024B1B68DB69019308BD3E
:10480C004002030008B5024B1B681B6A019308BDEC
:10481C004002030008B5024B1B689B6A019308BD5C
:10482C004002030008B5024B1B68DB6A019308BD0C
:10483C004002030008B5024B1B681B6B019308BDBB
:10484C004002030008B5024B1B685B6B019308BD6B
:10485C004002030008B5024B1B681B6C019308BD9A
:10486C004002030008B5024B1B685B6C019308BD4A
:10487C004002030008B5024B1B68DB68019308BDBE
:10488C004402030008B5024B1B685B69019308BD29
:10489C004402030008B5024B1B68DB6B019308BD97
:1048AC004402030008B5024B1B681B68019308BD4A
:1048BC001C02030008B5024B1B685B68019308BD22
:1048CC001C02030008B5024B1B689B68019308BDD2
:1048DC001C02030008B5024B1B685B6A019308BD00
:1048EC001C02030008B5024B1B68DB6A019308BD70
:1048FC001C02030008B5024B1B685B6C019308BDDE
:10490C001C020300002240681146FFF77BBF002207
:10491C0040681146FFF796BF40680022FFF78ABF38
:10492C004068002281F00101FFF764BF002340685A
:10493C001A461946FFF756BF002340681A46194617
:10494C00FFF748BF002240681146FFF73BBF00222B
:10495C0040681146FFF726BF406800220221FFF78E
:10496C0029BF002340681A46FFF714BF024B0322ED
:10497C005A60024A1A6070475CE70320EC690D002C
:10498C0007B50B4600210246009101208C21FFF750
:10499C00F7FE03B05DF804FB01460020FFF7F0BF03
:1049AC000020FFF7F9BF000010B5094B094C02229B
:1049BC0000201A60084B2060A080A071A360FFF754
:1049CC00B3FE2046054A0649BDE8104001F080BD03
:1049DC0070E7032064E703200000FFFF10E70320CB
:1049EC00AB400D0010B504460068FFF763FF20468E
:1049FC0010BD10B50446006808B1FFF75BFF00233B
:104A0C00C4E90133236010BD38B504460D46006877
:104A1C000131FFF757FF10B1C4E90005012038BD83
:104A2C0010B50368044623B143688B4201D30120BF
:104A3C0010BD2046FFF7E8FF0028F9D0A368002B33
:104A4C00F5D122681370F2E737B50D461146019285
:104A5C000446FFF7E5FF019A28B92046FFF7C9FF86
:104A6C00204603B030BDA2602946206801F068FEE4
:104A7C002268A3680021D154F2E7002313B5C0E9E2
:104A8C00003304468360037341B10846019101F081
:104A9C00B5FE019902462046FFF7D6FF204602B02C
:104AAC0010BD13B5044659B10846019101F0A6FE9C
:104ABC00019902462046FFF7C7FF204602B010BD01
:104ACC00FFF797FFF9E77047704770477047000092
:104ADC00064B994210B500F10C0405D0084601F0C4
:104AEC0001FD002808BF0024204610BD686B0D0096
:104AFC00064B994210B500F10C0405D0084601F0A4
:104B0C00F1FC002808BF0024204610BD686B0D0086
:104B1C00064B994210B500F10C0405D0084601F083
:104B2C00E1FC002808BF0024204610BD686B0D0076
:104B3C0010B56821044601F0D0FC204610BD10B51C
:104B4C002821044601F0C9FC204610BD10B53021C7
:104B5C00044601F0C2FC204610BDFFF796BAFFF7E1
:104B6C0094BAFFF792BA10B5036804469B6898474D
:104B7C00A368013BA3602BB923682046DB68BDE822
:104B8C001040184710BD10B50446006808B1FFF777
:104B9C002BFD204610BD000010B5044B04461868D0
:104BAC00FFF72AFD0123237010BD00BF7CE7032013
:104BBC0010B5044B04461868FFF726FD002323703C
:104BCC0010BD00BF7CE70320F0B50025EC1C8C4227
:104BDC000DD86E1C445D875D974205D12644B142C9
:104BEC0005D31D60601CF0BD01342544EEE70020A8
:104BFC00F9E72DE9F34704469DF828701E468946CF
:104C0C0001AB90460A46016AFFF7DEFF256AB31C2A
:104C1C0017BB08B35F193F1A1F2F19D8DDF8049082
:104C2C0009F1020AA5EB0902121A00EB090106EBC5
:104C3C000A0092B22144204401F090FD731C04F848
:104C4C0009303246414604EB0A0001F079FD276237
:104C5C00206A02B0BDE8F0872B441F2BF8D8731CD8
:104C6C006355A81C25442062324685F801904146C4
:104C7C00204401F065FD236A33442362E8E7000019
:104C8C00024A00210A20FFF73FBD00BFD1440D00AE
:104C9C00022A38B5044607D0032A11D0012A01D1C3
:104CAC000B682360002038BD08200D68FFF7EBF976
:104CBC0003460028F5D095E8030083E80300F0E7ED
:104CCC0000680028EED0082101F007FCEAE730B4B8
:104CDC000D4611461A46036809682868D3E9004353
:104CEC00A44630BC604710B58368044613B1032258
:104CFC0001469847204610BD10B504465830FFF7C2
:104D0C00F2FF04F14800BDE81040FFF76BBEA0F1C4
:104D1C003003DAB2092A01D818467047A0F16103B2
:104D2C00052B01D857387047A0F14103052B94BFD0
:104D3C0037384FF0FF30704710B50023044603702E
:104D4C00FFF72AFF204610BD10B5037804460BB1BF
:104D5C00FFF72EFF204610BD82B003460868496855
:104D6C006A4603C26A4603CA18601846596002B004
:104D7C00704708B582798B799A4206D1062201F0E8
:104D8C00D1FCB0FA80F0400908BD0020FCE74FF0E0
:104D9C00FF330360838000207047002108B5016059
:104DAC0041600246FFF7F3FF9171104608BD000009
:104DBC0001220261064A1168016051684160118943
:104DCC00927A827200220181C0F80B20C273704764
:104DDC00706B0D0010B50B69036101F110020346F5
:104DEC0051F8044B43F8044B9142F9D110BD10B566
:104DFC000B460446B1B1012A01F110020AD1014659
:104E0C0053F8040B41F8040B9342F9D101232361AD
:104E1C00204610BD411E12F8010D01F8010F9A42F7
:104E2C00F9D1F3E7102201F0B3FCF1E738B50446F1
:104E3C0015461A46FFF7DBFFA581204638BD00005A
:104E4C0008B5026922B98089003818BF012008BD55
:104E5C000249102201F066FCF6E700BF906B0D00D2
:104E6C000069704738B50C4614220021054601F044
:104E7C008FFC23693BB9627B2B74237B43EA0223AF
:104E8C002B80284638BD01232B7404F110022B46CD
:104E9C0054F8041B43F8041B9442F9D1F1E7427B0C
:104EAC00007B40EA02207047704708B502690B6925
:104EBC009A4206D1102201F035FCB0FA80F040097C
:104ECC0008BD0020FCE7000001232DE9F34103613C
:104EDC00324B1A6802605A68426000251A899B7A24
:104EEC00028104468372C0F80B50C5730E4621B381
:104EFC002421304601F09DFC042821D1ADF804504A
:104F0C0001AFB51C063615F8020CFFF700FFB0F127
:104F1C00000810DB15F8010CFFF7F9FE00280ADB7E
:104F2C00023540EA0810AE4207F8010BEBD1BDF890
:104F3C0004305BBAA3810023236102B0BDE8F08189
:104F4C0010272421304601F074FCA84206D82744CF
:104F5C000023BC42F1D007F8013DFAE7002FECD05A
:104F6C00705DFFF7D4FE030615D40001013F5FFA14
:104F7C0080F804F807802421304601F05AFC0135F2
:104F8C00A84208D9705DFFF7C2FE40B20028A4BF4A
:104F9C0040EA0800E0550135D3E700BF706B0D0007
:104FAC0013B504460191FFF703FF20460199FFF763
:104FBC008BFF204602B010BD30B49DF8085012B9DA
:104FCC00006A30BC7047029530BCFFF712BE1FB5AB
:104FDC000446024600F11F01002302F8013B9142F6
:104FEC00FBD123620093062201238DF80F20194672
:104FFC000DF10F022046FFF7DFFF204604B010BD75
:10500C0073B50A460E4601AB016A0446FFF7DCFD98
:10501C00054678B10198226A4119121A2144521B93
:10502C00204401F08DFB206A401B20623146204653
:10503C00FFF7E6FF02B070BD38B54FF6FF730025E1
:10504C00044643800E22294605700571063001F096
:10505C009FFB04F11400FFF7ABFE04F12800FFF7EF
:10506C00A7FE044904F13C00FFF707FD65652046E7
:10507C0038BD00BF8F680D0010B5D0E9063203EBC8
:10508C00C2029342184606D0046824888C4203F16D
:10509C000803F6D110BD0020FCE70000F0B5064671
:1050AC0085B01F460D46002950D0002A4ED004680A
:1050BC002378F42A28BFF42243B32379980709D51F
:1050CC00A08903920023FFF741FA0028039A03DA20
:1050DC0005B0F0BD6FF0770034682379D90609D597
:1050EC00012F07D0A0890023294605B0BDE8F04068
:1050FC00FFF75EBA9B06EBD5022FE9D0A0890023FF
:10510C00294605B0BDE8F040FFF75CBA60884FF661
:10511C00FF7188421CD021794E0701D5012F04D193
:10512C000B0709D46FF07700D2E7A18900931346DF
:10513C002A46FFF71FFACBE7022FF3D00023A189F1
:10514C00009313462A46FFF70BFAC1E70248BFE764
:10515C006FF0D100BCE700BFF2FEFFFF2DE9F0417C
:10516C0000260660074628200C46FEF78CFF051E1D
:10517C0005F10C080FD00123C5E90133084B2B6056
:10518C004046FFF715FE0FCC2E6285F8246046468C
:10519C000FC623683360C7E900853846BDE8F08147
:1051AC00386B0D0070B50025056006463020FEF703
:1051BC006AFF044688B10123C0E90133094B03603F
:1051CC004FF6FF7383810E30FFF7E7FDC4E90655F8
:1051DC00C4E90855C4E90A55A57574600C343460EB
:1051EC00304670BD546B0D0037B50D46044601A812
:1051FC00FFF7A2FD2A6852F8023F236053686360F0
:10520C0001A8FFF7A1FD204603B030BD30B505461F
:10521C0087B00C4601A8FFF78FFD2A682368128817
:10522C001B889A420DD1294602A8FFF7DDFF2146C3
:10523C0004A8FFF7D9FF04A902A8FFF79AFD0446BA
:10524C0000B9002401A8FFF77FFD204607B030BD50
:10525C0010B504465420FEF716FF014660B100233A
:10526C00C0E90033C0E90233C0E90433C0E90633B6
:10527C000362C362C363C364216019B9094A0A207B
:10528C00FFF742FA0020FFF72DF920B1054A002163
:10529C000A20FFF739FA216803480022FFF77EF94C
:1052AC00204610BDD1440D0031560D0010B50B4CED
:1052BC002378BFF35B8FDB070ED42046FEF7E7FEA7
:1052CC0050B10748FFF7C4FF2046FEF7E5FE054A3C
:1052DC000549034801F0FCF8014810BD74E70320B0
:1052EC0080E7032010E70320B1540D0030B50368AC
:1052FC00093B012B8DB004460D4611D8FFF7D6FFA4
:10530C00A1880068FFF7B8FE034658B92022CDE902
:10531C0004200B4A00920B4904AA3220FFF7FCF937
:10532C000DB030BD6A6D002AFAD0D4E9032105F125
:10533C004C00CDE90312AC6D04AA03A9A047EFE71A
:10534C00476A0D00206A0D00084611B90A46FFF79E
:10535C00D1B8096A0022FAE707B5084629B90A4606
:10536C0003B05DF804EBFFF7CDB801210190FFF716
:10537C0047FE01980022016AF2E738B5044615464B
:10538C00FFF7E2FF00280ADB29462046FFF7E4FF7F
:10539C00002804DBBDE838400020FFF7BBB838BD5F
:1053AC0038B500230446836008200D46FEF76BFEDB
:1053BC0018B12B6803606B684360034BE360034BCD
:1053CC002060A360204638BDDB4C0D009D4C0D00C9
:1053DC000B68036013B15A6801325A60704710B5FC
:1053EC0051F8043B044640F8043BFFF7F1FF2368F7
:1053FC000BB9FFF745FC204610BD10B551F8043B26
:10540C00044640F8043BFFF7E3FF204610BD10B5FF
:10541C0051F8043B044640F8043BFFF7D9FF204603
:10542C0010BD10B50446006828B14368013B4360C9
:10543C000BB9FFF798FB204610BD10B5044604309D
:10544C00FFF7EFFF204610BD70B5D0E900530446BE
:10545C0005EBC306AE4204D0281DFFF7E2FF08356A
:10546C00F8E72068FFF726FA204670BD70B5D0E942
:10547C000053044605EBC306AE4204D0281DFFF7CB
:10548C00D0FF0835F8E72068FFF714FA204670BD06
:10549C0010B504462430FFF7E9FF04F11800FFF7BC
:1054AC00D3FF10BDF8B50468064624B304F14400DC
:1054BC00FFF719FC04F13400FFF715FC04F124008C
:1054CC00FFF711FCD4E9065305EBC307AF4204D038
:1054DC00281DFFF7A6FF0835F8E7A069FFF7EAF9E2
:1054EC0004F10C00FFF7C2FF2046FFF7ADFF54217B
:1054FC00204600F0F2FF3046F8BD826810B50AB9BC
:10550C0000F0EDFFBDE81040C36818478842F8B5BD
:10551C0004460D46164614D9904213D2A2F1080641
:10552C00751AA1F108072C44B74218D01CB13146AA
:10553C002046FFF76CFF301DFFF773FF083E083C59
:10554C00F2E70CD0B5420AD01CB129462046FFF731
:10555C005EFF281DFFF765FF08350834F2E7F8BD3C
:10556C002DE9F041D0E900430546884604EBC3071A
:10557C00A74203D100263046BDE8F08141462046C3
:10558C00FFF744FE064608B90834F1E7002CF1D0C9
:10559C00201DFFF746FFD5E9003204F1080103EBAB
:1055AC00C2022046FFF7B2FF6B68013B6B60E2E77B
:1055BC00F7B5044646686846FFF729FFD4E901733E
:1055CC009F4212DB0137002F29DDF800FFF76AF943
:1055DC000546F0B1D4E9001201EBC202FFF796FFC9
:1055EC002068FFF767F92560A7602368626803EB02
:1055FC00C60603EBC202314606F10800FFF786FF30
:10560C001EB169463046FFF702FF636801336360E1
:10561C00012501A8FFF705FF284603B0F0BD0025C2
:10562C00DEE700002DE9F04105468EB003A80C46DC
:10563C00FFF782FB2E68042E6BD007D8032E28D0E0
:10564C0003A8FFF781FB0EB0BDE8F081A6F10C03B7
:10565C00032BF5D8A9892046FFF70EFD0746002835
:10566C00EED0E36C002BEBD01022002107A801F048
:10567C008FF80D2E06978DF81C6040F092806B68A9
:10568C00099306230893236D06A904F14400984757
:10569C00D6E704A8FFF786FD049BAA891A806968DF
:1056AC00049808310230FFF757FB04A906A8FFF74E
:1056BC00AEFE06A904F11800FFF77AFF054607A80D
:1056CC00FFF7AFFE202306938DB93E4B3E49009366
:1056DC0032202B4606AA0795FFF71EF8049B294695
:1056EC001888FEF71FFF05A8FFF79BFEA8E7374AAF
:1056FC00009200233449079306AA0120FFF70CF807
:10570C00E36A002BEFD004A904F12400FFF7F5FEA7
:10571C00E9E7A9892046FFF7AFFC064600288FD0A1
:10572C000568D5E906314FF6FF722A8003EBC101FB
:10573C00994203D053F8080B4280F9E7D5E903737B
:10574C0007EBC308B84504D0381DFFF76AFE0837CD
:10575C00F8E700232B61D5E9067307EBC308B845BE
:10576C0004D0381DFFF75DFE0837F8E70023EB6126
:10577C00AB72E36B23B1314604F13400FFF7BDFE8D
:10578C0000232022CDE90623114A00920E4906AAD5
:10579C000120FEF7C1FF314604F11800FFF7E0FECF
:1057AC004EE70F2E7FF46FAF6B6809932B7A03F0E3
:1057BC000102C3F340038DF829308DF8282008230B
:1057CC0060E700BF5F6A0D00206A0D00856A0D005E
:1057DC00A26A0D0013B500230446D1E90002C1E909
:1057EC0000332368009320606368626001A8019312
:1057FC00FFF717FE204602B010BD13B50B4602464C
:10580C00D0E900016C4684E8030093E8030082E8C9
:10581C00030094E8030083E8030002B010BD38B520
:10582C0005460C46FFF7E9FFAB68A268AA60A360C7
:10583C00EB68E268EA60E36038BD1FB500230446FC
:10584C00084669460293FFF7EAFF21466846FFF7D0
:10585C00E6FF6846FFF747FA204604B010BD70B566
:10586C000E4688B0044601921D46FFF7E5FB3378DF
:10587C000199237104F13C00FFF713F904F14C0674
:10588C0085B10C9B029502A904A80393FFF788FD30
:10589C0004A93046FFF7D1FF04A8FFF724FA2046ED
:1058AC0008B070BD0695F3E72DE9F04786B00746C2
:1058BC001D4668200023894692460493FEF7E3FBBD
:1058CC00061E06F10C081DD001233446C6E901332F
:1058DC00154B44F8203B9AF800308DF80C30109B97
:1058EC0000934A460F9B03A94046FFF7B8FF0FCD24
:1058FC000FC42B680E9D23600FCD06F134040FC42A
:10590C002B68236004A93846CDE90486FFF762FFB3
:10591C0005A8FFF786FD396819B9044A0A20FEF775
:10592C00F3FE06B0BDE8F0871C6B0D00D1440D00F2
:10593C008842F8B504460D46164614D9904213D247
:10594C00A2F10806751AA1F108072C44B74218D029
:10595C001CB131462046FFF750FD301DFFF761FDAD
:10596C00083E083CF2E70CD0B5420AD01CB12946DF
:10597C002046FFF742FD281DFFF753FD083508347C
:10598C00F2E7F8BD70B50E1E054611DDF000FEF70E
:10599C0089FF044658B1D5E9001201EBC202FFF7AA
:1059AC00C7FF2868FEF786FF2C60AE60012070BD33
:1059BC000024F6E773B5044645686846FFF71DFDFD
:1059CC00D4E90113994210DA2368626803EBC50528
:1059DC0003EBC202294605F10800FFF7A9FF8DB9B8
:1059EC00636801336360012606E001312046FFF74E
:1059FC00C9FF06460028E7D101A8FFF712FD304683
:105A0C0002B070BD69462846FFF7F7FCE8E788420C
:105A1C00F8B504460D46164614D9904213D2A2F19D
:105A2C000806751AA1F108072C44B74218D01CB10E
:105A3C0031462046FFF7D3FC301DFFF7F2FC083E41
:105A4C00083CF2E70CD0B5420AD01CB129462046DE
:105A5C00FFF7C5FC281DFFF7E4FC08350834F2E716
:105A6C00F8BD70B50E1E054611DDF000FEF71AFFED
:105A7C00044658B1D5E9001201EBC202FFF7C7FF8B
:105A8C002868FEF717FF2C60AE60012070BD002463
:105A9C00F6E773B5044645686846FFF7A0FCD4E901
:105AAC000113994210DA2368626803EBC50503EB16
:105ABC00C202294605F10800FFF7A9FF8DB96368FA
:105ACC0001336360012606E001312046FFF7C9FF70
:105ADC0006460028E7D101A8FFF7A3FC304602B028
:105AEC0070BD69462846FFF77AFCE8E72DE9F04FD0
:105AFC001746A1B080460AA80E46FFF71DF93C6870
:105B0C00237953B939464046FFF769FC0AA8FFF7D9
:105B1C001BF9404621B0BDE8F08F3368D3E903533D
:105B2C0005EBC303039304F1280A04F1140B039B44
:105B3C009D4221D0D5F80090584609F11401FFF789
:105B4C00B4F9B8B109F128015046FFF7AEF988B1A4
:105B5C002368D9F80020534033F47F430AD1202224
:105B6C00CDE915235E4A009215AA5E493220FEF754
:105B7C00D3FDC7E70835DAE75046FFF761F960B99E
:105B8C005949012215A815ADFFF731F90FCDD446AF
:105B9C00ACE80F002B68CCF800303368D3E9005325
:105BAC0005EBC30B5D45A94651466ED055F8080B65
:105BBC00FFF77BF90028F5D004F1140A5046FFF7E3
:105BCC003FF988B9494B48491A88013292B21A8078
:105BDC0015A8012315ADFFF729F90FCDD446ACE874
:105BEC000F002B68CCF800302822002116A800F0FA
:105BFC00CFFD3F4B1593514604A8FFF733F904AB87
:105C0C0018AA0DF1200C18685968154603C50833FD
:105C1C0063452A46F7D11868286023798DF85830E7
:105C2C00D9F800309B8AADF87430E36B1793314B85
:105C3C000022A11D15A8CDE91E34FEF7A5FC0028F5
:105C4C007FF460AF01232370346839460C340DA8FF
:105C5C00FFF7C5FB20460DA9FFF71BFF04460EA856
:105C6C00FFF7DFFB002C7FF44DAF2023CDE90D3483
:105C7C00214B00930DAA234677E739464046FFF7A0
:105C8C00AEFB0CA8FFF7CDFB40E70BA8FFF766FABD
:105C9C00514615A8FFF7E6F80B9A0023143215A904
:105CAC000120FEF749FC0028E7D135680BA90DA8A7
:105CBC00FFF7A3FB28460DA9FFF77CFE05460EA8AF
:105CCC00FFF7AFFB002DD8D032685368126803F190
:105CDC000053013B0CA802EBC309FFF7A2FB6BE7D7
:105CEC00C16A0D00206A0D00806B0D0078E703205F
:105CFC0001002C00F9520D00EC6A0D0010B5064C99
:105D0C00002320462360FEF767FC2046034A044923
:105D1C00BDE8104000F0DCBB7CE7032010E703205B
:105D2C00934B0D00F8B506460D468F180024BD4266
:105D3C000CD0336815F8011B9B6830469847031E3E
:105D4C0001DB1C44F3E7002C08BF1C462046F8BDC1
:105D5C0013B50446084659B1019100F04FFD236874
:105D6C000199DB680246204602B0BDE81040184796
:105D7C0002B010BD03689B68184738B50D21054665
:105D8C00FFF7F8FF0A2104462846FFF7F3FF2044EB
:105D9C0038BD38B50546FFF7DBFF04462846FFF74C
:105DAC00ECFF204438BD30B58BB000238DF8243087
:105DBC00012A98BF0A2209AC0D46B1FBF2F101FB96
:105DCC00125303F0FF03092B94BF30333733DBB28C
:105DDC00AA4204F8013DEFD92146FFF7B9FF0BB0F9
:105DEC0030BD2DE9F04186B000AF05460E46381D9A
:105DFC00142114463B60FEF76DFD13280ED8391D97
:105E0C002846FFF7A5FF04461EB12846FFF7B5FF4D
:105E1C00044420461837BD46BDE8F08100F1080364
:105E2C0023F00703E846ADEB030D2246411C3B680B
:105E3C006846FEF74FFD69462846FFF789FF044682
:105E4C00C546E1E7002340681A461946FEF7C2BC76
:105E5C00014B024A1A60704784E70320A06B0D00C7
:105E6C00024B1A68024B1A60704700BFA8E6032069
:105E7C0088E703200021FEF75FBC10B50446FEF74F
:105E8C0032FF204610BD00000348044A0449002399
:105E9C00836000F01DBB00BF8CE7032010E70320DC
:105EAC00875E0D00014B1860704700BFACE6032005
:105EBC0008B50B4B43B100F05BF903681B699847BD
:105ECC00002801DDAFF30080064B43B100F0CEF9A2
:105EDC0003681B699847002801DDAFF3008008BDFB
:105EEC00000000000000000008B5FFF7E1FFFEF71E
:105EFC00F1FA014B186008BDECE703200248034A95
:105F0C000349121A00F01CBC00F4032004F4032013
:105F1C00D06D0D0007B5002300931A466FF0770182
:105F2C00FEF724FC03B05DF804FB000007B54388C2
:105F3C000A2B08D0502B0BD1094B1B684BB103B06B
:105F4C005DF804EB1847FFF7E5FF03B05DF804FBC1
:105F5C00002300931A466FF07701FEF707FCF4E775
:105F6C00A0E7032038B5124C1248134D0021FEF760
:105F7C00C1FC2368AB42114B0CBF012200221A70EA
:105F8C0002D0FFF7BBFF2560FEF794FA044600F041
:105F9C0007FC0B4B13B12046AFF3008000210848DF
:105FAC00FEF778FCBDE8384006480021FEF7D4BB6C
:105FBC0000F40320B15E0D001E1C279A9CE7032001
:105FCC0000000000395F0D00704710B51821044621
:105FDC0000F083FA204610BDF0B5037D062B8DB082
:105FEC000E4600F104074FF0000412D000F1080532
:105FFC0015F8011D0A223046FFF7D5FEAF420444C6
:10600C0019D0002CF4D02E213046FFF7B3FE0444F7
:10601C00EEE72F236A4639460A208DF80040FEF73A
:10602C00FBFA684600F0EAFB33680246DB68694617
:10603C0030469847044620460DB0F0BD10B5054BD0
:10604C000446112240F8043B002100F0A1FB20463D
:10605C0010BD00BFC86B0D000346074A10B543F8CE
:10606C00042B01F1100251F8044B43F8044B9142FC
:10607C00F9D10A781A7010BDC86B0D0010B59DF8D7
:10608C00084044EA032343EA024242EA0161042342
:10609C004160037510BD000013B5054B0360CB7850
:1060AC0000938B784A780978FFF7E8FF02B010BDAF
:1060BC00C86B0D0041747047704708B50021007C17
:1060CC00FEF70AFB40EAE07008BD08B50121007C30
:1060DC00FEF702FB40EAE07008BD08B5007CFEF755
:1060EC00F3FA20EAE07008BD08B5007CFEF7E4FA8C
:1060FC0020EAE07008BD13B50446007C0191FEF760
:10610C00E3FA0028019901DC607C20B1207CFEF7C9
:10611C00EBFA20EAE07002B010BD007CFEF7ECBA9E
:10612C0010B51421044600F0D8F9204610BD00002B
:10613C0010B54FF47A73044608460021C4E90113E4
:10614C00044B23600123207463741146FEF7A4FAF8
:10615C00204610BDDC6B0D00007C0022FEF7A4BABB
:10616C0010B514220446002100F012FB204610BD8D
:10617C0010B5104C88B003A8FFF7F2FF2178BFF3DD
:10618C005B8F11F0010111D120460191FDF77FFFCA
:10619C00019958B103AA0848FFF7CAFF2046FDF73A
:1061AC007BFF064A0649044800F092F9024808B001
:1061BC0010BD00BFA4E70320A8E7032010E70320CD
:1061CC00C5600D0070474174704708B5007CFEF740
:1061DC005BFA20EAE07008BD08B5007CFEF734FAE3
:1061EC0020EAE07008BD08B5007CFEF73DFA40EAF5
:1061FC00E07008BD08B5007CFEF72EFA40EAE070AE
:10620C0008BD007CFEF738BA37B5457C04462DB185
:10621C00207C03B0BDE83040FEF70EBA007C019143
:10622C00FEF732FA00280199F2DC284603B030BDA3
:10623C0010B51421044600F050F9204610BD0000A2
:10624C0010B54FF0000C0446084611464FF47A7214
:10625C00C4E901C2044A22600122207462741A4605
:10626C00FEF7E2F9204610BD0C6C0D00F7B51B4C87
:10627C0026684EB98420FDF706FF054618B1842226
:10628C00314600F085FA2560154D2F684FB98420F2
:10629C00FDF7F9FE064618B18422394600F078FA6B
:1062AC002E60104E3178BFF35B8F11F0010112D1CB
:1062BC0030460191FDF7EBFE019960B122682B6825
:1062CC000948FFF7BDFF3046FDF7E6FE074A0849CF
:1062DC00054800F0FDF8044803B0F0BDC0E703200A
:1062EC00C4E70320BCE70320C8E7032010E7032022
:1062FC00D1610D00002240681146FEF763BA0022FE
:10630C0040681146FEF77EBA002240681146FEF73F
:10631C0099BA40680022FEF78DBA4068002281F0DD
:10632C000101FEF767BA002340681A461946FEF7CA
:10633C0059BA002240681146FEF734BA4068002270
:10634C000221FEF737BA002340681A46FEF722BA3C
:10635C00024B04225A60024A1A607047DCE70320A1
:10636C003C6C0D00002340681A46FEF713BA4068D7
:10637C0000220221FEF71EBA002240681146FEF7E9
:10638C0011BA002240681146FEF71CBA002340687F
:10639C001A461946FEF71EBA002340681A461946DB
:1063AC00FEF720BA40680021FEF754BA406800217D
:1063BC00FEF758BA4068002281F00101FEF71ABAC4
:1063CC0040680022FEF736BA002240681146FEF7FC
:1063DC0039BA002240681146FEF714BA2DE9F04391
:1063EC00002495B016460D460746FFF727FE2146BA
:1063FC0018220EA8009400F0CBF94023CDE90C3400
:10640C0021466B460CAA3046FEF74CF80446002891
:10641C004CD1024601216868FEF7D4F9022180466E
:10642C0022466868FEF7CEF9009E81462146002E72
:10643C003CD000293AD17368022B03D00A2B11D01F
:10644C00F669F4E7B8F1000F0AD0716906A80431B7
:10645C0007ADFFF721FE0FCD3C1D0FC42B68237039
:10646C004146EDE7B9F1000F01D14946E8E77469FF
:10647C00102201A800F08CF906238DF8143001AD20
:10648C0004F108031834186859682A4603C2083303
:10649C00A3421546F7D101A906A807ADFFF7DCFD0D
:1064AC000FCD3C1D0FC42B682370DEE70098FDF761
:1064BC00F1FF384615B0BDE8F0830000024B034AEB
:1064CC001A6000225A607047E4E70320786C0D00D4
:1064DC000B460146184600F017B9FDF7D6BD08B5B6
:1064EC00FEF700FA014900F0F9B800BFC46C0D00CA
:1064FC007FB500241023CDE90234036800949E6913
:10650C008DF8044015466B461268B0479DF8043070
:10651C0003F00603062B03BF009B2B6001202046D3
:10652C0004B070BD0098904214BF01200620704743
:10653C0010B5034B0360044600F0CDF8204610BDA7
:10654C00046D0D0010B50446FFF7F2FF204608213C
:10655C00FFF7C3FF204610BD2DE9F0411F46DDE9D2
:10656C000834DDF8188098450646154607D107997A
:10657C0000F0B4F818B165710020BDE8F08139461F
:10658C00304600F0ABF80028F6D00123C4F80080A8
:10659C002571A371F0E738B515461C4600F09EF83E
:1065AC0020B10823E36006232560237138BD73B541
:1065BC0005460C4601921E4600F090F850B9032E89
:1065CC0008D82368019A5B692946204602B0BDE8C9
:1065DC007040184702B070BD10B5034B0360044601
:1065EC00FFF7A6FF204610BD646D0D0010B50446E4
:1065FC00FFF7F2FF20460C21FFF76FFF204610BD7E
:10660C00F7B5089F974205460E4614460AD0A8686F
:10661C0002680897156A31462246AC4603B0BDE8BD
:10662C00F04060471946019300F058F8019B002890
:10663C00EDD0062003B0F0BD2DE9F14F0D46194603
:10664C00DDE90A4BDDE90CA681461746984600F0B9
:10665C0045F890B1002D3460377109DB61198A451A
:10666C000CBF06210121B171002001B0BDE8F08FF3
:10667C000235F9D10123B371F6E7544506D15946D9
:10668C00484600F02BF808B17771EDE7D9F808000F
:10669C000368CDE90CA6CDE90A4BDC693A464346C2
:1066AC002946A44601B0BDE8F04F60472DE9F04102
:1066BC0007460C4615461E46FFF76DFF48B9B868ED
:1066CC0003689F692A4633462146BC46BDE8F04123
:1066DC006047BDE8F081704700207047814208B5E3
:1066EC000ED0406803782A2B0CD049680B782A2BE3
:1066FC0008BF013100F078F8B0FA80F0400908BD0D
:10670C000120FCE70020FAE710B5054C13462CB12C
:10671C000A4601460220AFF3008010BD2046FCE77C
:10672C000000000030B501390024A24201D1002044
:10673C0005E0035D01340D5DAB42F6D0581B30BD56
:10674C000A44914200F1FF3300D1704710B511F8A3
:10675C00014B03F8014F9142F9D110BD884210B59D
:10676C0001EB020402D98442234607D8431EA142FE
:10677C0008D011F8012B03F8012FF8E70244014669
:10678C008A4200D110BD13F8014D02F8014DF7E714
:10679C0002440346934200D1704703F8011BF9E70A
:1067AC0038B50D4B1D68AB6B04467BB91820FEF752
:1067BC0079F80A4A0A4BA863C0E90023094B8360A5
:1067CC000B23838101220023C0E90423AB6B00223D
:1067DC001C615A6138BD00BFACE603200E33CDAB53
:1067EC0034126DE6ECDE050010F8012B11F8013BBC
:1067FC00012A28BF9A42F7D0D01A7047034613F8E3
:10680C00012B002AFBD1181A0138704710B5013939
:10681C00034632B111F8014F03F8014B013A002C39
:10682C00F7D11A440021934200D110BD03F8011B8B
:10683C00F9E710B5024601448A42134601D1181AF1
:10684C0010BD1C780132002CF6D1F8E71D400D006C
:10685C0059400D0081400D0085400D0000000000E6
:10686C005353494420697320746F6F206C6F6E67AB
:10687C0000536574207769666920535349443A2064
:10688C0025730A0050617373776F726420697320EB
:10689C00746F6F206C6F6E67005365742077696638
:1068AC006920706173733A2025730A004661696C24
:1068BC00656420746F20636C65617220576966692A
:1068CC002063726564656E7469616C7300466169FE
:1068DC006C656420746F2073657420576966692039
:1068EC0063726564656E7469616C7300576946699F
:1068FC002063726564656E7469616C732073657472
:10690C0000424C45205769466920536574757020C8
:10691C0072756E6E696E67005061727469636C6536
:10692C0020636F6E6E656374656400356331623924
:10693C006130642D623562652D346134302D3866DA
:10694C0037612D3636623336643061353137360077
:10695C0066646366303030312D336665642D346582
:10696C0064322D383465362D30346262623961659B
:10697C00303464340066646366303030322D3366F4
:10698C0065642D346564322D383465362D303462AF
:10699C0062623961653034643400736574576966BA
:1069AC0069535349440066646366303030332D3389
:1069BC006665642D346564322D383465362D30347B
:1069CC00626262396165303464340073657457698E
:1069DC006669506173730000000000000000000045
:1069EC006F490D0065490D005B490D0051490D00C3
:1069FC0045490D0039490D00B1630D00B9630D0017
:106A0C002D490D0025490D001B490D0011490D00A4
:106A1C00E9630D00776972696E672E626C650053CD
:106A2C007461727420646973636F766572696E67E2
:106A3C002073657276696365732E005065657220EC
:106A4C00646576696365206973206D697373696E1B
:106A5C006721004661696C656420746F20617070F9
:106A6C00656E6420706565722043656E7472616C2E
:106A7C00206465766963652E00436F6E6E65637482
:106A8C0065642062792043656E7472616C20646564
:106A9C00766963652E00446973636F6E6E6563740B
:106AAC0065642062792072656D6F7465206465760B
:106ABC006963652E004475706C696361746564204C
:106ACC00636861726163746572697374696320636E
:106ADC00616E6E6F742062652061646465642E0063
:106AEC004661696C656420746F20617070656E64BA
:106AFC00206C6F63616C2063686172616374657292
:106B0C0069737469632E000000000000000000002F
:106B1C00D94A0D003D4B0D00054D0D00674B0D0086
:106B2C00DD4A0D000000000000000000D54A0D00F9
:106B3C004B4B0D00D74A0D006B4B0D00FD4A0D0061
:106B4C000000000000000000D34A0D00594B0D005E
:106B5C009D540D006F4B0D001D4B0D0000000000EF
:106B6C0000000000FB349B5F8000008000100000E0
:106B7C00000000007BE327747BF815ACDD49A913FA
:106B8C00000072F5FB349B5F800000800010000059
:106B9C00000000006170700025592D256D2D2564B5
:106BAC005425483A254D3A2553257A006173637470
:106BBC00696D65000000000000000000E55F0D003D
:106BCC00D55F0D00D75F0D00000000000000000035
:106BDC00C5600D002D610D0003610D00315D0D00D0
:106BEC00F5600D00C7600D00D7600D0027610D002A
:106BFC00E7600D00C1600D00000000000000000007
:106C0C00D1610D003D620D0015620D00315D0D006E
:106C1C00E5610D0001620D00F3610D000F620D00C6
:106C2C00D3610D00D7610D000000000000000000D2
:106C3C0053630D0049630D003F630D0001630D00AC
:106C4C00515E0D0033630D00B1630D00B9630D008F
:106C5C0027630D001F630D0015630D000B630D0002
:106C6C00E9630D00000000000000000071630D00DE
:106C7C007B630D0085630D008F630D0099630D0020
:106C8C00A5630D00B1630D00B9630D00C1630D0068
:106C9C00CD630D00D5630D00DF630D00E9630D00BE
:106CAC00537431395F53705F6D616B655F736861ED
:106CBC007265645F74616700046D0D00AC6C0D004F
:106CCC00646D0D00D86C0D00886D0D004E31305F79
:106CDC005F637878616269763131375F5F636C61CD
:106CEC0073735F747970655F696E666F4500000041
:106CFC0000000000CC6C0D003D650D0051650D00D1
:106D0C00E5660D00E5660D00BB650D00FD640D002C
:106D1C00A3650D0065650D0031650D00646D0D00FA
:106D2C00346D0D00CC6C0D004E31305F5F637878A4
:106D3C00616269763132305F5F73695F636C617376
:106D4C00735F747970655F696E666F450000000053
:106D5C0000000000286D0D00E5650D00F9650D00C3
:106D6C00E5660D00E5660D00BB650D00FD640D00CC
:106D7C00B9660D0045660D000D660D00046D0D0025
:106D8C00906D0D00537439747970655F696E666F20
:106D9C000000000051430D0079490D00B5490D006C
:106DAC00095D0D005D5E0D006D5E0D00955E0D00C4
:106DBC005D630D00C9640D000000000000000000C0
:046DCC0000000000C3
:046DD00000000000BF
:106DD400B86B0D00B0E603200000000000000000C6
:106DE400000000000000000000000000000000009F
:106DF400000000000000000000000000000000008F
:106E0400000000000000000000000000000000007E
:106E1400000000000000000000000000000000006E
:106E2400000000000000000000000000000000005E
:086E3400000000000000000056
:106E3C00FFFFFFFF00000102030405060708090A13
:106E4C000B0C0D0E0F101112131415161718191A0E
:086E5C001B1C1D1E1F20280055
:046E64007856341216
:04000003D000401CCD
:00000001FF
